:100000000C942A000C94A0050C9447000C94470013
:100010000C9401030C94B0020C9452030C9447000E
:100020000C9447000C9447000C945F020C940E0251
:100030000C9447000C9447000C9447000C94470024
:100040000C9447000C9447000C9447000C94470014
:100050000C94470011241FBECFE5D8E0DEBFCDBF12
:1000600010E0A0E6B0E0E0E1FEE002C005900D92F5
:10007000A836B107D9F710E0A8E6B0E001C01D929C
:10008000AB38B107E1F70E9476050C9406070C9493
:10009000000083B7877F83BF83B78F7B83BF85B51E
:1000A0008F7B85BD85B5877F85BD089526B537B51E
:1000B000C9010895882319F0823041F514C0CB019D
:1000C000A0E0B0E08093600090936100A093620094
:1000D000B093630010927400109275001092760035
:1000E000109277000895CB01A0E0B0E08093640007
:1000F00090936500A0936600B093670010926C0027
:1001000010926D0010926E0010926F000895882377
:1001100019F0813041F404C08EB58F7B8EBD0895F7
:100120008EB580648EBD08958130E9F0813020F075
:10013000823009F059C041C0613049F0613020F08F
:10014000623009F051C009C089B78E7F02C089B7FB
:10015000816089BF89B78D7F3FC089B78E7F89BF96
:1001600089B7826039C0613051F0613028F0623067
:1001700091F06330C9F51BC089B78F7D1AC089B76C
:100180008F7D89BF89B78F7E89BF89B7877F89BFF8
:1001900089B7846021C089B78F7D89BF89B78061A5
:1001A00089BF89B7877F89BF89B78B7F15C089B71A
:1001B000806289BF89B78F7EF3CF613041F06130B3
:1001C00018F0623089F40AC089B78F7B02C089B702
:1001D000806489BF89B78F7789BF089589B78F7B7E
:1001E00089BF89B7806889BF0895813099F08130CF
:1001F00018F0823089F523C0662329F450937900E2
:10020000409378000895613039F550937B00409316
:100210007A000895662329F450938100409380006A
:100220000895613029F4509383004093820008952B
:10023000623091F4509385004093840008956623C2
:1002400029F450937D0040937C000895613021F49F
:1002500050937F0040937E000895813039F08130C3
:1002600018F0823039F405C062BF08957DBD6CBDC1
:10027000089564BD0895813039F0813018F08230DE
:1002800039F405C06CBF08957BBD6ABD089563BD98
:100290000895813049F0813028F0823041F020E02B
:1002A00030E008C082B704C02CB53DB503C084B5AA
:1002B000282F30E0C9010895813051F0813018F0C5
:1002C000823079F40AC083B7887F826083BF089543
:1002D0008EB5887F82608EBD089585B5887F8260E7
:1002E00085BD08958130D9F0813020F0823009F049
:1002F00043C02CC0CB01A0E0B0E08093600090939D
:100300006100A0936200B093630030937B00209360
:100310007A0080E0BA010E943B0180E014C0CB016A
:10032000A0E0B0E08093600090936100A093620031
:10033000B0936300309383002093820081E0BA0180
:100340000E943B0181E00E945C010895CB01A0E086
:10035000B0E08093640090936500A0936600B09332
:10036000670030937F0020937E0082E0BA010E94F4
:100370003B0182E00E945C0108958130B1F0813040
:1003800018F08230B9F524C0CB01A0E0B0E0809332
:10039000600090936100A0936200B093630050935B
:1003A00079004093780080E010C0CB01A0E0B0E07D
:1003B0008093600090936100A0936200B09363000B
:1003C000509381004093800081E00E945C01089579
:1003D000CB01A0E0B0E08093640090936500A0930F
:1003E0006600B093670050937D0040937C0082E0EC
:1003F0000E945C010895813049F0813018F082300C
:1004000061F408C083B7887F83BF089583B7887F6E
:100410008EBD089585B5887F85BD08951F920F9282
:100420000FB60F9211242F933F934F935F936F93C7
:100430007F938F939F93AF93BF93EF93FF9380919D
:10044000740090917500A0917600B09177000196AC
:10045000A11DB11D8093740090937500A093760048
:10046000B09377002091600030916100409162006C
:100470005091630082179307A407B50779F4E091C0
:100480007800F0917900309749F009951092740046
:10049000109275001092760010927700FF91EF9104
:1004A000BF91AF919F918F917F916F915F914F918C
:1004B0003F912F910F900FBE0F901F9018951F9294
:1004C0000F920FB60F9211242F933F934F935F9388
:1004D0006F937F938F939F93AF93BF93EF93FF930C
:1004E0008091700090917100A0917200B0917300A2
:1004F0000196A11DB11D8093700090937100A0938F
:100500007200B093730020916000309161004091BF
:1005100062005091630082179307A407B50779F42E
:10052000E0917A00F0917B00309749F009951092A4
:100530007000109271001092720010927300FF917F
:10054000EF91BF91AF919F918F917F916F915F914B
:100550004F913F912F910F900FBE0F901F901895C4
:100560001F920F920FB60F9211242F933F934F9328
:100570005F936F937F938F939F93AF93BF93EF930B
:10058000FF9380916C0090916D00A0916E00B091EE
:100590006F000196A11DB11D80936C0090936D00BA
:1005A000A0936E00B0936F002091640030916500BD
:1005B000409166005091670082179307A407B50722
:1005C00079F4E0917C00F0917D00309749F0099535
:1005D00010926C0010926D0010926E0010926F00DD
:1005E000FF91EF91BF91AF919F918F917F916F910B
:1005F0005F914F913F912F910F900FBE0F901F90E1
:1006000018951F920F920FB60F9211242F933F93BC
:100610004F935F936F937F938F939F93AF93BF930A
:10062000EF93FF938091680090916900A0916A0018
:10063000B0916B000196A11DB11D8093680090934D
:100640006900A0936A00B0936B0020916400309120
:100650006500409166005091670082179307A407D8
:10066000B50779F4E0917E00F0917F00309749F072
:100670000995109268001092690010926A00109219
:100680006B00FF91EF91BF91AF919F918F917F91FF
:100690006F915F914F913F912F910F900FBE0F90EF
:1006A0001F9018951F920F920FB60F9211242F933F
:1006B0003F934F935F936F937F938F939F93AF93EA
:1006C000BF93EF93FF93E0918400F091850009952B
:1006D000FF91EF91BF91AF919F918F917F916F911A
:1006E0005F914F913F912F910F900FBE0F901F90F0
:1006F00018958FB780688FBF08958FB78F778FBF9A
:100700000895813041F0813018F0823059F407C0EB
:100710008BB78F7B02C08BB78F778BBF08958BB75A
:100720008F7D8BBF0895813029F1813020F0823098
:1007300009F04DC03EC0613071F0613030F0623080
:1007400069F0633009F043C00FC085B78E7F85BF65
:1007500085B782602CC085B7826008C085B78D7F61
:1007600085BF85B78E7F23C085B78D7F85BF85B751
:1007700081601DC0613051F0613028F0623061F05D
:10078000633029F50FC085B78B7F02C085B78460C1
:1007900085BF85B788600BC085B78B7F85BF85B760
:1007A000877F05C085B7877F85BF85B7846085BF94
:1007B0000895623060F4662319F0613041F404C09A
:1007C00084B78F7B84BF089584B7806484BF089505
:1007D000813059F0813018F08230C1F40FC08BB7EE
:1007E00080648BBF83E062E005C08BB780688BBFFD
:1007F00083E063E040E00E94070408958BB78062C5
:100800008BBF81E062E040E00E9407040895413020
:10081000B1F5813099F0813030F08230D1F0833001
:1008200009F067C021C02AB381E090E002C0880FC0
:10083000991F6A95E2F7282B2ABB089527B381E018
:1008400090E002C0880F991F6A95E2F7282B27BB1A
:10085000089524B381E090E002C0880F991F6A9543
:10086000E2F7282B24BB089521B381E090E002C079
:10087000880F991F6A95E2F7282B21BB089544231E
:10088000C1F5813099F0813028F08230D9F0833081
:1008900081F524C02AB381E090E002C0880F991F3F
:1008A0006A95E2F7809582238ABB089527B381E099
:1008B00090E002C0880F991F6A95E2F78095822325
:1008C00087BB089524B381E090E002C0880F991F90
:1008D0006A95E2F78095822384BB089521B381E075
:1008E00090E002C0880F991F6A95E2F780958223F5
:1008F00081BB08954130B1F5813099F0813030F0FD
:100900008230D1F0833009F067C021C02BB381E081
:1009100090E002C0880F991F6A95E2F7282B2BBB45
:10092000089528B381E090E002C0880F991F6A956E
:10093000E2F7282B28BB089525B381E090E002C0A0
:10094000880F991F6A95E2F7282B25BB089522B3DB
:1009500081E090E002C0880F991F6A95E2F7282B8A
:1009600022BB08954423C1F5813099F0813028F0ED
:100970008230D9F0833081F524C02BB381E090E040
:1009800002C0880F991F6A95E2F7809582238BBB7E
:10099000089528B381E090E002C0880F991F6A95FE
:1009A000E2F78095822388BB089525B381E090E02B
:1009B00002C0880F991F6A95E2F78095822385BB54
:1009C000089522B381E090E002C0880F991F6A95D4
:1009D000E2F78095822382BB0895813091F08130C7
:1009E00028F08230C9F0833061F521C02BB381E05B
:1009F00090E002C0880F991F6A95E2F728272BBB69
:100A0000089528B381E090E002C0880F991F6A958D
:100A1000E2F7282728BB089525B381E090E002C0C3
:100A2000880F991F6A95E2F7282725BB089522B3FE
:100A300081E090E002C0880F991F6A95E2F72827AD
:100A400022BB0895813051F0813030F0823041F086
:100A5000833079F080E0089589B303C086B301C084
:100A600083B390E002C0959587956A95E2F781700F
:100A7000089580B390E002C0959587956A95E2F756
:100A800081700895813049F0813028F0823039F04A
:100A9000833041F406C06ABB089567BB089564BB08
:100AA000089561BB0895813049F0813028F082308B
:100AB00039F0833041F406C06BBB089568BB0895DC
:100AC00065BB089562BB0895813051F0813030F0EC
:100AD000823041F0833041F080E008958BB3089577
:100AE00088B3089585B3089582B3089580E060E0E7
:100AF0000E94930380E00E94E80383E062E041E00B
:100B00000E947A040E9479030E94490080E067E015
:100B10000E94420581E067E00E94420580E061E0BA
:100B20000E94940082E061E00E94940080E060E016
:100B300046E656E00E94F50080E00E945C01FFCF8F
:100B40001F920F920FB60F9211242F933F934F9342
:100B50005F936F937F938F939F93AF93BF93EF9325
:100B6000FF93809186008230F9F480E00E94810337
:100B70001092870080E060E04BE456E00E94F500B0
:100B800082E060E04BE256E00E94F50080E061E028
:100B900070E00E945A0082E061E070E00E945A001A
:100BA00082E00E945C0130C080918600833021F099
:100BB00080918600813041F580E00E94810310928F
:100BC000880083E08093890081E08093870060E063
:100BD00041E00E947A0480E060E041EC56E00E942F
:100BE000F50082E060E041E856E00E94F50082E016
:100BF0000E945C0180E061E070E00E945A0082E0A7
:100C000061E070E00E945A00FF91EF91BF91AF91B7
:100C10009F918F917F916F915F914F913F912F9114
:100C20000F900FBE0F901F90189582E06CE47CE44B
:100C30000E945A0081E061E040E00E947A0481E075
:100C400060E041E00E947A0482E060E04BEF56E011
:100C50000E94F500089582E06CE47CE40E945A0052
:100C600081E062E041E00E947A0480918700813057
:100C700039F482E060E04BEF56E00E94F500089501
:100C800080918700882331F482E060E041E856E0FB
:100C90000E94F500089580E06CE47CE40E945A0014
:100CA00080E060E041EC56E00E94F50080E062E008
:100CB00040E00E947A0480E060E041E00E947A0413
:100CC00082E08093860080938900089580E06CE440
:100CD0007CE40E945A0080E060E041EC56E00E9413
:100CE000F50080E061E040E00E947A0480E062E08C
:100CF00041E00E947A0483E080938600809389001B
:100D0000089582E064EF71E00E945A0080918A00A9
:100D10008F5F80938A0081E062E040E00E947A0465
:100D200081E061E00E94ED0480918A00883241F503
:100D300080918700882371F482E060E045E156E00D
:100D40000E94F50082E061E070E00E945A0010927B
:100D50008A00089580918700813091F482E060E0FC
:100D60004BE256E00E94F50081E060E040E00E9426
:100D70007A0482E061E070E00E945A0010928A00DA
:100D8000089580E064EF71E00E945A00809188002D
:100D90008F5F8093880080E062E040E00E947A04E8
:100DA00080E060E040E00E947A0480E061E00E9420
:100DB000ED04809188008832D1F4809189008330DD
:100DC00029F480E060E04BE456E008C0809189009F
:100DD000823059F480E060E046E656E00E94F5007B
:100DE00080E061E070E00E945A001092880081E08B
:100DF00080938600089580E00E94E80381E060E02F
:100E00000E94530582E00E94FB010895F894FFCFF1
:080E10000100000001000000D8
:00000001FF
